{
  "_format": "hh-sol-artifact-1",
  "contractName": "DIDRegistry",
  "sourceName": "contracts/DIDRegistry.sol",
  "abi": [
    {
      "anonymous": false,
      "inputs": [
        {
          "indexed": true,
          "internalType": "string",
          "name": "did",
          "type": "string"
        },
        {
          "indexed": true,
          "internalType": "address",
          "name": "owner",
          "type": "address"
        },
        {
          "indexed": false,
          "internalType": "string",
          "name": "ipfsHash",
          "type": "string"
        },
        {
          "indexed": false,
          "internalType": "uint256",
          "name": "timestamp",
          "type": "uint256"
        }
      ],
      "name": "IdentityRegistered",
      "type": "event"
    },
    {
      "anonymous": false,
      "inputs": [
        {
          "indexed": true,
          "internalType": "string",
          "name": "did",
          "type": "string"
        },
        {
          "indexed": true,
          "internalType": "address",
          "name": "verifier",
          "type": "address"
        },
        {
          "indexed": false,
          "internalType": "uint256",
          "name": "timestamp",
          "type": "uint256"
        }
      ],
      "name": "IdentityVerified",
      "type": "event"
    },
    {
      "inputs": [
        {
          "internalType": "string",
          "name": "did",
          "type": "string"
        }
      ],
      "name": "getIdentity",
      "outputs": [
        {
          "internalType": "address",
          "name": "owner",
          "type": "address"
        },
        {
          "internalType": "string",
          "name": "ipfsHash",
          "type": "string"
        },
        {
          "internalType": "bool",
          "name": "verified",
          "type": "bool"
        },
        {
          "internalType": "address",
          "name": "verifier",
          "type": "address"
        },
        {
          "internalType": "uint256",
          "name": "timestamp",
          "type": "uint256"
        }
      ],
      "stateMutability": "view",
      "type": "function"
    },
    {
      "inputs": [
        {
          "internalType": "string",
          "name": "",
          "type": "string"
        }
      ],
      "name": "identities",
      "outputs": [
        {
          "internalType": "address",
          "name": "owner",
          "type": "address"
        },
        {
          "internalType": "string",
          "name": "ipfsHash",
          "type": "string"
        },
        {
          "internalType": "bool",
          "name": "verified",
          "type": "bool"
        },
        {
          "internalType": "address",
          "name": "verifier",
          "type": "address"
        },
        {
          "internalType": "uint256",
          "name": "timestamp",
          "type": "uint256"
        }
      ],
      "stateMutability": "view",
      "type": "function"
    },
    {
      "inputs": [
        {
          "internalType": "string",
          "name": "did",
          "type": "string"
        },
        {
          "internalType": "string",
          "name": "ipfsHash",
          "type": "string"
        }
      ],
      "name": "registerIdentity",
      "outputs": [],
      "stateMutability": "nonpayable",
      "type": "function"
    },
    {
      "inputs": [
        {
          "internalType": "string",
          "name": "did",
          "type": "string"
        }
      ],
      "name": "verifyIdentity",
      "outputs": [],
      "stateMutability": "nonpayable",
      "type": "function"
    }
  ],
  "bytecode": "0x608060405234801561001057600080fd5b50610fe7806100206000396000f3fe608060405234801561001057600080fd5b506004361061004c5760003560e01c806301e21afb146100515780630a29ae6f146100855780630be8293f146100b95780637fa84046146100d5575b600080fd5b61006b6004803603810190610066919061086a565b6100f1565b60405161007c9594939291906109a7565b60405180910390f35b61009f600480360381019061009a9190610a61565b610212565b6040516100b09594939291906109a7565b60405180910390f35b6100d360048036038101906100ce9190610aae565b610344565b005b6100ef60048036038101906100ea9190610a61565b610586565b005b6000818051602081018201805184825260208301602085012081835280955050505050506000915090508060000160009054906101000a900473ffffffffffffffffffffffffffffffffffffffff169080600101805461015090610b5e565b80601f016020809104026020016040519081016040528092919081815260200182805461017c90610b5e565b80156101c95780601f1061019e576101008083540402835291602001916101c9565b820191906000526020600020905b8154815290600101906020018083116101ac57829003601f168201915b5050505050908060020160009054906101000a900460ff16908060020160019054906101000a900473ffffffffffffffffffffffffffffffffffffffff16908060030154905085565b600060606000806000806000888860405161022e929190610bbf565b908152602001604051809103902090508060000160009054906101000a900473ffffffffffffffffffffffffffffffffffffffff16816001018260020160009054906101000a900460ff168360020160019054906101000a900473ffffffffffffffffffffffffffffffffffffffff1684600301548380546102af90610b5e565b80601f01602080910402602001604051908101604052809291908181526020018280546102db90610b5e565b80156103285780601f106102fd57610100808354040283529160200191610328565b820191906000526020600020905b81548152906001019060200180831161030b57829003601f168201915b5050505050935095509550955095509550509295509295909350565b6000808585604051610357929190610bbf565b90815260200160405180910390209050600073ffffffffffffffffffffffffffffffffffffffff168160000160009054906101000a900473ffffffffffffffffffffffffffffffffffffffff1673ffffffffffffffffffffffffffffffffffffffff16148061041557503373ffffffffffffffffffffffffffffffffffffffff168160000160009054906101000a900473ffffffffffffffffffffffffffffffffffffffff1673ffffffffffffffffffffffffffffffffffffffff16145b610454576040517f08c379a000000000000000000000000000000000000000000000000000000000815260040161044b90610c24565b60405180910390fd5b338160000160006101000a81548173ffffffffffffffffffffffffffffffffffffffff021916908373ffffffffffffffffffffffffffffffffffffffff16021790555082828260010191826104aa929190610dfb565b5060008160020160006101000a81548160ff02191690831515021790555060008160020160016101000a81548173ffffffffffffffffffffffffffffffffffffffff021916908373ffffffffffffffffffffffffffffffffffffffff1602179055504281600301819055503373ffffffffffffffffffffffffffffffffffffffff16858560405161053c929190610bbf565b60405180910390207f0d2ce52b1ffa5aebb0f1f210cf114494a43538bc34b2b2ff5e7ec69a5fe8ae0d85854260405161057793929190610ef8565b60405180910390a35050505050565b6000808383604051610599929190610bbf565b90815260200160405180910390209050600073ffffffffffffffffffffffffffffffffffffffff168160000160009054906101000a900473ffffffffffffffffffffffffffffffffffffffff1673ffffffffffffffffffffffffffffffffffffffff160361063c576040517f08c379a000000000000000000000000000000000000000000000000000000000815260040161063390610f76565b60405180910390fd5b60018160020160006101000a81548160ff021916908315150217905550338160020160016101000a81548173ffffffffffffffffffffffffffffffffffffffff021916908373ffffffffffffffffffffffffffffffffffffffff1602179055504281600301819055503373ffffffffffffffffffffffffffffffffffffffff1683836040516106cc929190610bbf565b60405180910390207f2604254405c9add9ded1297482608d68eb3999df4009cba97c1f901c491a59eb426040516107039190610f96565b60405180910390a3505050565b6000604051905090565b600080fd5b600080fd5b600080fd5b600080fd5b6000601f19601f8301169050919050565b7f4e487b7100000000000000000000000000000000000000000000000000000000600052604160045260246000fd5b6107778261072e565b810181811067ffffffffffffffff821117156107965761079561073f565b5b80604052505050565b60006107a9610710565b90506107b5828261076e565b919050565b600067ffffffffffffffff8211156107d5576107d461073f565b5b6107de8261072e565b9050602081019050919050565b82818337600083830152505050565b600061080d610808846107ba565b61079f565b90508281526020810184848401111561082957610828610729565b5b6108348482856107eb565b509392505050565b600082601f83011261085157610850610724565b5b81356108618482602086016107fa565b91505092915050565b6000602082840312156108805761087f61071a565b5b600082013567ffffffffffffffff81111561089e5761089d61071f565b5b6108aa8482850161083c565b91505092915050565b600073ffffffffffffffffffffffffffffffffffffffff82169050919050565b60006108de826108b3565b9050919050565b6108ee816108d3565b82525050565b600081519050919050565b600082825260208201905092915050565b60005b8381101561092e578082015181840152602081019050610913565b60008484015250505050565b6000610945826108f4565b61094f81856108ff565b935061095f818560208601610910565b6109688161072e565b840191505092915050565b60008115159050919050565b61098881610973565b82525050565b6000819050919050565b6109a18161098e565b82525050565b600060a0820190506109bc60008301886108e5565b81810360208301526109ce818761093a565b90506109dd604083018661097f565b6109ea60608301856108e5565b6109f76080830184610998565b9695505050505050565b600080fd5b600080fd5b60008083601f840112610a2157610a20610724565b5b8235905067ffffffffffffffff811115610a3e57610a3d610a01565b5b602083019150836001820283011115610a5a57610a59610a06565b5b9250929050565b60008060208385031215610a7857610a7761071a565b5b600083013567ffffffffffffffff811115610a9657610a9561071f565b5b610aa285828601610a0b565b92509250509250929050565b60008060008060408587031215610ac857610ac761071a565b5b600085013567ffffffffffffffff811115610ae657610ae561071f565b5b610af287828801610a0b565b9450945050602085013567ffffffffffffffff811115610b1557610b1461071f565b5b610b2187828801610a0b565b925092505092959194509250565b7f4e487b7100000000000000000000000000000000000000000000000000000000600052602260045260246000fd5b60006002820490506001821680610b7657607f821691505b602082108103610b8957610b88610b2f565b5b50919050565b600081905092915050565b6000610ba68385610b8f565b9350610bb38385846107eb565b82840190509392505050565b6000610bcc828486610b9a565b91508190509392505050565b7f616c7265616479206f776e656420627920616e6f746865720000000000000000600082015250565b6000610c0e6018836108ff565b9150610c1982610bd8565b602082019050919050565b60006020820190508181036000830152610c3d81610c01565b9050919050565b600082905092915050565b60008190508160005260206000209050919050565b60006020601f8301049050919050565b600082821b905092915050565b600060088302610cb17fffffffffffffffffffffffffffffffffffffffffffffffffffffffffffffffff82610c74565b610cbb8683610c74565b95508019841693508086168417925050509392505050565b6000819050919050565b6000610cf8610cf3610cee8461098e565b610cd3565b61098e565b9050919050565b6000819050919050565b610d1283610cdd565b610d26610d1e82610cff565b848454610c81565b825550505050565b600090565b610d3b610d2e565b610d46818484610d09565b505050565b5b81811015610d6a57610d5f600082610d33565b600181019050610d4c565b5050565b601f821115610daf57610d8081610c4f565b610d8984610c64565b81016020851015610d98578190505b610dac610da485610c64565b830182610d4b565b50505b505050565b600082821c905092915050565b6000610dd260001984600802610db4565b1980831691505092915050565b6000610deb8383610dc1565b9150826002028217905092915050565b610e058383610c44565b67ffffffffffffffff811115610e1e57610e1d61073f565b5b610e288254610b5e565b610e33828285610d6e565b6000601f831160018114610e625760008415610e50578287013590505b610e5a8582610ddf565b865550610ec2565b601f198416610e7086610c4f565b60005b82811015610e9857848901358255600182019150602085019450602081019050610e73565b86831015610eb55784890135610eb1601f891682610dc1565b8355505b6001600288020188555050505b50505050505050565b6000610ed783856108ff565b9350610ee48385846107eb565b610eed8361072e565b840190509392505050565b60006040820190508181036000830152610f13818587610ecb565b9050610f226020830184610998565b949350505050565b7f6e6f742072656769737465726564000000000000000000000000000000000000600082015250565b6000610f60600e836108ff565b9150610f6b82610f2a565b602082019050919050565b60006020820190508181036000830152610f8f81610f53565b9050919050565b6000602082019050610fab6000830184610998565b9291505056fea264697066735822122033b3bacae676f65aa333a9ccd9ee8aaf8e6bb70e246383475f3812b16801c73164736f6c63430008130033",
  "linkReferences": {},
  "deployedLinkReferences": {}
}